:100000000C942A000C9447000C9447000C94470071
:100010000C9447000C9447000C9447000C9418066D
:100020000C9447000C9447000C9447000C94470034
:100030000C9447000C9447000C9447000C94470024
:100040000C9447000C9447000C9447000C94470014
:100050000C94470011241FBECFE5D8E0DEBFCDBF12
:1000600011E0A0E6B0E0E8EBF2E402C005900D92EA
:10007000AE39B107D9F718E0AEE9B1E001C01D9281
:10008000A732B107E1F70E9438200C945A210C9452
:100090000000A0E3B0E0EFE4F0E00C941A21A8E047
:1000A0004E010894811C911CF401BA2F1192BA954B
:1000B000E9F729833A834B835C836D837E838F8347
:1000C0009887CE010996FC011192AA95E9F7A986B5
:1000D000BA86CB86DC86ED86FE860F87188B298153
:1000E0003A814B815C812DA73EA74FA758AB790180
:1000F0008A018FEF9FEFA0E0B0E0E822F9220A2307
:100100001B231A014424552429853A854B855C8597
:1001100029A73AA74BA75CA759016A01A822B922CF
:10012000CA22DB223A0188249924C601B501A8011C
:1001300097010E94C5206DA37EA38FA398A7C40139
:10014000B3010E94C52069A37AA38BA39CA3C60117
:10015000B501A20191010E94C5207B018C01C4015F
:10016000B3010E94C5205B016C0189A19AA1ABA1DA
:10017000BCA18E0D9F1DA01FB11F89A39AA3ABA385
:10018000BCA32DA13EA14FA158A5CA01AA27BB27F8
:1001900029A13AA14BA15CA1280F391F4A1F5B1F5F
:1001A00029A33AA34BA35CA32E153F054007510793
:1001B00040F480E090E0A1E0B0E0A80EB91ECA1EB5
:1001C000DB1E89A19AA1ABA1BCA19D0144275527A3
:1001D0002A0D3B1D4C1D5D1D2D8F3E8F4F8F58A34B
:1001E0006C01BB24AA248DA19EA1AFA1B8A5A070CB
:1001F000B070A80EB91ECA1EDB1EA98EBA8ECB8E99
:10020000DC8E9A8C8B8C7C8C9E8D6F8D78A1FE0100
:10021000719688E0DF011D928A95E9F72D8B9E8B00
:100220006F8B788F2D853E854F8558896DA57EA56E
:100230008FA598A90E94C5207B018C012D813E814C
:100240004F81588569A57AA58BA59CA50E94C520DC
:10025000E60EF71E081F191F6D897E898F89988DFC
:100260006E0D7F1D801F911F6D8B7E8B8F8B988FE6
:10027000EE892A2D392D482D572D7E2F8F89988D67
:10028000E096E2E10C943621382F883008F07AC0ED
:10029000613029F1613038F0623009F43CC06330DC
:1002A00009F070C053C0413059F42AB381E090E0A6
:1002B00002C0880F991F3A95E2F7282B2ABB60C02D
:1002C000442309F05FC02AB381E090E002C0880FA8
:1002D000991F3A95E2F7809582238ABB51C041303D
:1002E00059F427B381E090E002C0880F991F3A9536
:1002F000E2F7282B27BB44C0442309F043C027B3AF
:1003000081E090E002C0880F991F3A95E2F780954E
:10031000822387BB35C0413059F424B381E090E09B
:1003200002C0880F991F3A95E2F7282B24BB28C0FA
:10033000442341F524B381E090E002C0880F991F67
:100340003A95E2F78095822384BB1AC0413059F474
:1003500021B381E090E002C0880F991F3A95E2F73F
:10036000282B21BB0DC0442369F421B381E090E028
:1003700002C0880F991F3A95E2F78095822381BBCE
:1003800081E0089580E00895982F862F81508E3F58
:1003900090F0913049F0913028F0923039F093305C
:1003A00051F406C06ABB05C067BB03C064BB01C093
:1003B00061BB81E0089580E00895382F883008F00F
:1003C0007AC0613029F1613038F0623009F43CC004
:1003D000633009F070C053C0413059F42BB381E051
:1003E00090E002C0880F991F3A95E2F7282B2BBBAB
:1003F00060C0442309F05FC02BB381E090E002C0ED
:10040000880F991F3A95E2F7809582238BBB51C0E4
:10041000413059F428B381E090E002C0880F991F61
:100420003A95E2F7282B28BB44C0442309F043C087
:1004300028B381E090E002C0880F991F3A95E2F757
:100440008095822388BB35C0413059F425B381E0C3
:1004500090E002C0880F991F3A95E2F7282B25BB40
:1004600028C0442341F525B381E090E002C0880F05
:10047000991F3A95E2F78095822385BB1AC04130D7
:1004800059F422B381E090E002C0880F991F3A9599
:10049000E2F7282B22BB0DC0442369F422B381E08C
:1004A00090E002C0880F991F3A95E2F78095822369
:1004B00082BB81E0089580E00895813051F0813061
:1004C00030F0823041F0833049F080E008956BBB1A
:1004D00003C068BB01C065BB81E0089562BB81E0D9
:1004E0000895282FFA018830E8F441305105D1F001
:1004F000613049F0613028F0623039F0633091F4B6
:1005000006C089B305C086B303C083B301C080B3FE
:1005100090E002C0959587952A95E2F781708083D7
:1005200081E0089580E00895982F853008F047C055
:100530006130B9F0613030F0623011F1633009F0B0
:100540003EC02DC08BB32FE030E002C0220F331F1E
:100550009A95E2F7209528232BBB8BB3842B8BBB7A
:100560002CC088B32FE030E002C0220F331F9A95D1
:10057000E2F72095282328BB88B3842B88BB1DC0B5
:1005800085B32FE030E002C0220F331F9A95E2F7C7
:100590002095282325BB85B3842B85BB0EC082B351
:1005A0002FE030E002C0220F331F9A95E2F720952A
:1005B000282322BB82B3842B82BB81E0089580E094
:1005C0000895FC010FB6F8940F9220813181609557
:1005D000709562237323718360830F900FBEC901EE
:1005E0000895FC01808191810895BA010E94E10281
:1005F0000895CF93DF93EC010E94A40F06C08F8172
:10060000988560E072E00E94CE118A818823B9F754
:10061000CE010E9469040E94A015DF91CF91089538
:10062000CF92DF92EF92FF920F931F93CF93DF93BE
:10063000EC018B0185E0E82EF12CEC0EFD1E0E94F2
:10064000A40FEF81F88588819981802B912B998364
:10065000888300E010E024C0D280C3808081918133
:10066000BC016070AC0150702881398192FD05C0D9
:1006700024233523232B31F40FC0242335232417BF
:10068000350751F470FF02C0042B152B6881798166
:100690007260CF010E94CE118D2D9C2D9C01F9011D
:1006A000EE15FF05C9F60095109588819981802384
:1006B0009123998388830E94A01588819981DF9175
:1006C000CF911F910F91FF90EF90DF90CF90089501
:1006D000BA010E9410030895AF92BF92CF92DF92A9
:1006E000EF92FF920F931F93CF93DF936C017B01E7
:1006F000A42EB22E0E94A40FF60120813181C701E1
:1007000082239323BB2021F4892B09F05AC004C013
:100710008E159F0509F455C00115110559F4E9011D
:100720001BC0C7018095909582239323F601918386
:1007300080834AC0AA2019F060E071E002C060E046
:1007400070E0B11074606E297F29C6010296A8017D
:100750000E94E817C0E0D0E00E94A015012B29F10B
:10076000882311F40E941B060E94C21291FD1BC037
:100770000FB6F8940F92F60180819181970128239A
:100780003923BB2019F4232B19F50BC02E153F0577
:1007900041F41EC0E094F094E822F922F601F182BF
:1007A000E0820F900FBEEC01D070CE01DF91CF91AF
:1007B0001F910F91FF90EF90DF90CF90BF90AF907F
:1007C0000895AA2009F0ADCFE90100E010E0C4CF00
:1007D000AA2001F7E6CFAF92BF92CF92DF92EF92BD
:1007E000FF920F931F93CF93DF936C018B017A01DC
:1007F00059010E94A40FF601C081D181C601B80140
:100800000E941003C02BD12BC7018C239D238E1572
:100810009F0569F4970120953095F60180819181BB
:100820008223932391838083AA24BB2410C0A11424
:10083000B10451F0B7017560C6010296A5010E948E
:10084000E817C0E0D0E003C0F601C081D1810E946A
:10085000A015AB28F9F0882311F40E941B060E9412
:10086000C2129C0191FD14C00FB6F8940F92F601CC
:1008700020813181C701822393238E159F0531F496
:10088000E094F094E222F322F182E0820F900FBE16
:10089000E901D070CE01DF91CF911F910F91FF90B0
:1008A000EF90DF90CF90BF90AF900895CF93DF93FC
:1008B0008BE090E00E947904EC01009731F0FC019C
:1008C00011921192CF010E94AD04CE01DF91CF9120
:1008D0000895089510929F0110929E0108952BEDA6
:1008E00035E080919E0190919F01281B390BC90131
:1008F0000895CF93DF93EC010E94A40F8091A00193
:100900009091A101892B31F482EA91E09093A101A9
:100910008093A0012097C9F020919E0130919F0102
:10092000CE01820F931F45E08B3D940770F428178A
:10093000390758F4C091A001D091A101C20FD31F73
:1009400090939F0180939E0102C0C0E0D0E00E947E
:10095000A015CE01DF91CF910895FC019C012D5F80
:100960003F4F328321838FEF9FEF948383833683BE
:1009700025833087278310820895FC011186108615
:100980000895AC01FC01A181B281FB01B383A28374
:1009900014968D919C911597958384831496ED916F
:1009A000FC9115977383628315967C936E931497CD
:1009B000FB0151874087FA0180818F5F8083089512
:1009C000CF93DF939C01EB01488159818FEF4F3F1B
:1009D000580721F4F901A781B0850DC0D9011396FC
:1009E0001296ED91FC9113978081918148175907D8
:1009F00010F0DF01F5CF1296ED91FC911397FB8378
:100A0000EA83D583C483BD83AC831396DC93CE93F2
:100A1000129739872887F90180818F5F8083DF9162
:100A2000CF910895CF93DF93DC011896CD91DC919F
:100A3000199712964D915C91139714968D919C91F4
:100A40001597FA019583848314962D913C911597FF
:100A5000F9015383428389819A818A179B0711F494
:100A60003A83298319961C921E9218978881815087
:100A700088838881DF91CF910895FC0191E1908373
:100A800022E2229383E3829362937293129280E82C
:100A90008293129282E0829383E0829384E0829335
:100AA00085E0829386E0829387E0829388E0829358
:100AB00089E0829380E18293929382E1829383E141
:100AC000829384E1829385E1829386E1829387E138
:100AD000829388E1829389E1829380E2829381E22A
:100AE0008293229383E282934293529386E282938B
:100AF00087E2829388E2829389E2829380E3829301
:100B000081E382933197CF0108951BBC8CE78ABDA6
:100B10008BE08EBD89B7806189BFA0917E07B091BF
:100B20007F07CD91CDBFDD91DEBFFF91EF91DF91CA
:100B3000CF91BF91AF919F918F917F916F915F9175
:100B40004F913F912F911F910F91FF90EF90DF9068
:100B5000CF90BF90AF909F908F907F906F905F905D
:100B60004F903F902F901F900F900FBE0F900895C1
:100B700081E0089508950F920FB6F8940F921F9296
:100B800011242F923F924F925F926F927F928F9299
:100B90009F92AF92BF92CF92DF92EF92FF920F930C
:100BA0001F932F933F934F935F936F937F938F93F5
:100BB0009F93AF93BF93CF93DF93EF93FF93A09156
:100BC0007E07B0917F070DB60D920EB60D920E9472
:100BD000C90F882311F00E94E110A0917E07B09107
:100BE0007F07CD91CDBFDD91DEBFFF91EF91DF910A
:100BF000CF91BF91AF919F918F917F916F915F91B5
:100C00004F913F912F911F910F91FF90EF90DF90A7
:100C1000CF90BF90AF909F908F907F906F905F909C
:100C20004F903F902F901F900F900FBE0F90089500
:100C30000E94BB0518950F920FB6F8940F921F9261
:100C400011242F923F924F925F926F927F928F92D8
:100C50009F92AF92BF92CF92DF92EF92FF920F934B
:100C60001F932F933F934F935F936F937F938F9334
:100C70009F93AF93BF93CF93DF93EF93FF93A09195
:100C80007E07B0917F070DB60D920EB60D920E94B1
:100C9000E110A0917E07B0917F07CD91CDBFDD918E
:100CA000DEBFFF91EF91DF91CF91BF91AF919F9107
:100CB0008F917F916F915F914F913F912F911F91F4
:100CC0000F91FF90EF90DF90CF90BF90AF909F90EB
:100CD0008F907F906F905F904F903F902F901F90DC
:100CE0000F900FBE0F900895FC010FB6F8940F926D
:100CF000828D0F900FBE0895FC010FB6F8940F92ED
:100D0000928D0F900FBE838D891B0895FC01828DFB
:100D10000895FC01828D90E0882309F491E0892FE9
:100D20000895FC01928D20E0838D981709F421E04D
:100D3000822F08950E9469040895FC01562FA72F61
:100D4000248D2223B9F086819781820F911D97838C
:100D50008683248135818217930720F080819181D9
:100D600097838683448D66817781852F9A2F50E003
:100D70000E94512108950F931F93CF93DF93EC01AD
:100D80008A8D882341F00E811F81CE010E949D062D
:100D90001F830E8381E0DF91CF911F910F91089502
:100DA0000F931F93CF93DF93EC01042F1A8D4C8D7B
:100DB0004423C1F10023B1F48A819B8150E00E9459
:100DC00051218C8D2A813B81280F311D3B832A8341
:100DD0008C819D812817390728F1888199819B830F
:100DE0008A8320C08E819F8150E00E9451218C8D8A
:100DF00090E044275527481B590B8E819F81840F13
:100E0000951F9F838E83288139818217930730F441
:100E10008C819D81840F951F9F838E83023011F4F6
:100E2000111111501F5F1A8F80E0DF91CF911F9138
:100E30000F910895EF92FF920F931F93CF93DF933B
:100E4000EC017A011A8D112311F480E01AC00D8D86
:100E50000E949D0611501A8F0F3F81F488858823C8
:100E600079F0CE0108960E941B11882349F0E11405
:100E7000F10431F081E0F701808303C00F5F0D8F33
:100E800081E0DF91CF911F910F91FF90EF90089536
:100E9000CF93DF93FC01EB01928D838D981710F0B7
:100EA00080E016C0868D9F5F928F8F3F71F481899D
:100EB000882369F0CF0141960E941B11882339F0E5
:100EC000209729F081E0888303C08F5F868F81E0BF
:100ED000DF91CF910895EF92FF921F93CF93DF930D
:100EE000EC017A019A8D8B8D981720F0223011F049
:100EF00080E01BC01E8D8A8DCE01422F0E94D0063D
:100F00001F3F81F48989882379F0CE0141960E94A0
:100F10001B11882349F0E114F10431F081E0F7015D
:100F2000808303C01F5F1E8F81E0DF91CF911F91EF
:100F3000FF90EF900895EF92FF921F93CF93DF936E
:100F4000EC010FB6F8940F921E8D91E1E92EF12C71
:100F5000EC0EFD1E0BC08989882351F0C7010E9449
:100F60001B11882311F00E94B812115011169CF326
:100F70008FEF8E8F0F900FBE0FB6F8940F921D8DCE
:100F800088E0E82EF12CEC0EFD1E0BC0888588232E
:100F900051F0C7010E941B11882311F00E94B81262
:100FA000115011169CF38FEF8D8F0F900FBEDF91B4
:100FB000CF911F91FF90EF9008958F929F92AF92E3
:100FC000BF92CF92DF92EF92FF920F931F93DF9326
:100FD000CF9300D000D00F92CDB7DEB77C015B017C
:100FE0005D834C8341E1C42ED12CC80ED91E20E074
:100FF0008E010F5F1F4F34E0832E912C8C0E9D1EAF
:1010000001C021E00FB6F8940F92F701828D88237A
:10101000B9F006811781C701B5010E949D06F7014D
:10102000178306838189882339F0C6010E941B112A
:10103000882311F00E941B060F900FBE81E054C060
:101040008C819D81892B21F40F900FBE80E04CC0D4
:10105000222319F4C8010E9478120F900FBE0E943B
:10106000A40F0FB6F8940F92F701858D8F3F09F406
:10107000158EF701868D8F3F09F4168E0F900FBEE7
:10108000C801B4010E9483128823F9F40FB6F894C2
:101090000F92F701828D0F900FBE882381F46C812F
:1010A0007D81C6010E947218C7010E949B070E94A1
:1010B000A015882309F0A5CF0E941B06A2CFC70167
:1010C0000E949B070E94A0159CCFC7010E949B070E
:1010D0000E94A0150FB6F8940F92F701828D0F9021
:1010E0000FBE882309F08DCF0F900F900F900F90B7
:1010F0000F90CF91DF911F910F91FF90EF90DF90B4
:10110000CF90BF90AF909F908F900895AF92BF9275
:10111000CF92DF92EF92FF920F931F93DF93CF93C3
:1011200000D000D00F92CDB7DEB78C017D836C83E9
:1011300061E1E62EF12CE80EF91E20E06E01089424
:10114000C11CD11C54E0A52EB12CAC0EBD1E01C09B
:1011500021E00FB6F8940F92F801828D882389F070
:101160008150828F8085882341F0C80108960E94B3
:101170001B11882311F00E941B060F900FBE81E007
:1011800054C08C819D81892B21F40F900FBE80E08B
:101190004CC0222319F4C6010E9478120F900FBE92
:1011A0000E94A40F0FB6F8940F92F801858D8F3F1F
:1011B00009F4158EF801868D8F3F09F4168E0F9075
:1011C0000FBEC601B5010E9483128823F9F40FB641
:1011D000F8940F92F801828D0F900FBE882381F44E
:1011E0006C817D81C7010E947218C8010E949B0713
:1011F0000E94A015882309F0ABCF0E941B06A8CF40
:10120000C8010E949B070E94A015A2CFC8010E949E
:101210009B070E94A0150FB6F8940F92F801828DDB
:101220000F900FBE882309F093CF0F900F900F906F
:101230000F900F90CF91DF911F910F91FF90EF9042
:10124000DF90CF90BF90AF9008956F927F928F9272
:101250009F92AF92BF92CF92DF92FF920F931F9314
:10126000DF93CF9300D000D00F92CDB7DEB78C01C3
:101270005B015D834C83E1E1CE2ED12CC80ED91EDB
:1012800020E04E010894811C911C74E0672E712CA3
:101290006C0E7D1E01C021E00FB6F8940F92F8018C
:1012A000F28CFF20B1F0C801B5010E949D06FA94AE
:1012B000F801F28E8085882341F0C80108960E94CB
:1012C0001B11882311F00E941B060F900FBE81E0B6
:1012D00054C08C819D81892B21F40F900FBE80E03A
:1012E0004CC0222319F4C4010E9478120F900FBE43
:1012F0000E94A40F0FB6F8940F92F801858D8F3FCE
:1013000009F4158EF801868D8F3F09F4168E0F9023
:101310000FBEC401B3010E9483128823F9F40FB6F3
:10132000F8940F92F801828D0F900FBE882381F4FC
:101330006C817D81C6010E947218C8010E949B07C2
:101340000E94A015882309F0A6CF0E941B06A3CFF8
:10135000C8010E949B070E94A0159DCFC8010E9452
:101360009B070E94A0150FB6F8940F92F801828D8A
:101370000F900FBE882309F08ECF0F900F900F9023
:101380000F900F90CF91DF911F910F91FF90DF9001
:10139000CF90BF90AF909F908F907F906F90089567
:1013A0006F927F929F92AF92BF92CF92DF92EF9215
:1013B000FF920F931F93DF93CF9300D000D00F9233
:1013C000CDB7DEB78C016B015D834C83922EA8E014
:1013D000EA2EF12CE80EF91E20E05E010894A11C13
:1013E000B11CF4E06F2E712C6C0E7D1E01C021E04B
:1013F0000FB6F8940F92F801928D838D981718F01C
:10140000F2E09F16C9F4C801B601492D0E94D0062A
:10141000982FF8018189882339F0C80141960E94EC
:101420001B11882329F002C0992311F00E941B068A
:101430000F900FBE81E04CC08C819D81892B19F4E7
:101440000F900FBE44C0222319F4C5010E947812E8
:101450000F900FBE0E94A40F0FB6F8940F92F801E0
:10146000858D8F3F09F4158EF801868D8F3F09F425
:10147000168E0F900FBEC501B3010E948312882300
:1014800009F50FB6F8940F92F801928D0F900FBEE8
:10149000F801838D981781F46C817D81C7010E94CA
:1014A0007218C8010E949B070E94A015882309F0AA
:1014B0009ECF0E941B069BCFC8010E949B070E94E3
:1014C000A01595CFC8010E949B070E94A01580E03F
:1014D0000F900F900F900F900F90CF91DF911F9171
:1014E0000F91FF90EF90DF90CF90BF90AF909F90C3
:1014F0007F906F900895CF93DF93EC01E62F0097D4
:1015000009F44FC02B8D222309F44BC03C8D8FEF83
:101510009FE7622F70E00E94E420832F90E068171D
:10152000790708F43EC00FB6F8940F92329FC001BD
:10153000112448815981840F951F9D838C831A8EB5
:101540005B834A832B8D30E0215030408C8D90E0BE
:10155000BC01269FC001279F900D369F900D11243E
:10156000480F591F5F834E838FEF8D8F8E8FEE2331
:1015700061F48885882389F0CE0108960E941B11AA
:10158000882359F00E941B0608C0CE0108960E94CD
:10159000AD04CE0141960E94AD040F900FBE81E0D4
:1015A00001C080E0DF91CF9108950F931F93CF93F7
:1015B000DF93182F062F882341F18FEF9FE7612FCC
:1015C00070E00E94E420802F90E068177907E8F02F
:1015D000019FC00111242FE7813E9207B0F44F967E
:1015E0000E947904FC01EC01009789F0002319F4B2
:1015F0009183808303C04F9691838083138F048FE0
:10160000CF0161E00E947B0A02C0C0E0D0E0CE01C1
:10161000DF91CF911F910F9108951F93162F88236B
:1016200059F0861748F060E042E00E94D50AFC01BC
:10163000009721F0128F02C0E0E0F0E0CF011F918F
:101640000895FC016115710511F461E070E0848179
:1016500095816817790710F080E008957783668395
:1016600081E00895FC016481758120813181408190
:10167000518182819381460F571F481B590B8081EE
:1016800091812817390789F79A0121503040261790
:10169000370710F0261B370BC9010895FC01448160
:1016A00055812281338180819181240F351F281B30
:1016B000390B2417350710F0241B350BC901089589
:1016C000FC01208131818281938140E08217930760
:1016D00009F441E0842F0895CF93DF93FC018685C0
:1016E00080FD03C0C0E0D0E002C0C2E0D0E0CF0186
:1016F0000E94320B20E0C817D90708F021E0822FA2
:10170000DF91CF910895CF92DF92EF92FF920F93E6
:10171000CF93DF93EC016B018A859B85892B11F4B4
:1017200080E00FC08A859B8560E020E030E040E0EB
:1017300050E000E0EE24FF240E94DA121B861A8695
:1017400081E0DF91CF910F91FF90EF90DF90CF90EC
:101750000895CF92DF92EF92FF920F93CF93DF9392
:10176000EC016B0188859985892B11F480E00FC00D
:101770008885998560E020E030E040E050E000E0BE
:10178000EE24FF240E94DA121986188681E0DF9188
:10179000CF910F91FF90EF90DF90CF900895AF928F
:1017A000BF92CF92DF92EF92FF920F931F93CF934E
:1017B000DF936C018B017A015901DC011496CD9104
:1017C000DC911597C21BD30B4C175D0708F4EA0197
:1017D000F601248535852A0D3B1DC801B901AE01EE
:1017E0000E945121CE15DF0580F498012C0F3D1F7A
:1017F000F701EC1BFD0BD6011C966C911C971D96F6
:101800007C91C901AF010E94512195012E0D3F1D10
:10181000F601848195812817390710F0281B390BB0
:10182000C901DF91CF911F910F91FF90EF90DF9051
:10183000CF90BF90AF900895AF92BF92CF92DF92BA
:10184000EF92FF920F931F93DF93CF9300D0CDB70A
:10185000DEB76C015B018A017901FC0120813181D5
:10186000868580FF14C0C601BE016F5F7F4F42E0D6
:1018700050E00E94CF0B9C0149815A818EEF9FEF6F
:10188000E80EF91E0417150710F440E050E08A0135
:10189000E416F50608F487010115110541F0C601AB
:1018A000B501A8010E94CF0BF60191838083C80186
:1018B0000F900F90CF91DF911F910F91FF90EF90BC
:1018C000DF90CF90BF90AF900895AF92BF92CF922C
:1018D000DF92EF92FF920F93CF93DF93EC016901B8
:1018E0008E8580FD03C0A0E0B0E002C0A2E0B0E0C1
:1018F000EC81FD812A813B81888199812E0F3F1FD8
:10190000281B390B2E173F0710F02E1B3F0BA21779
:10191000B30718F0AA24BB2418C0CE010E941C0CE7
:101920005C01009791F08A859B85892B71F08A85EF
:101930009B8560E020E030E040E050E000E0EE24F5
:10194000FF240E94DA121B861A86C501DF91CF910F
:101950000F91FF90EF90DF90CF90BF90AF900895E0
:10196000DF93CF9300D0CDB7DEB7FC01868580FF33
:101970001FC0448155812281338180819181240F50
:10198000351F281B390B2417350710F0241B350B86
:101990002330310568F020813181CF01BE016F5FB6
:1019A0007F4F42E050E00E94CF0B29813A8102C074
:1019B00020E030E0C9010F900F90CF91DF910895A2
:1019C000AF92BF92CF92DF92EF92FF920F931F934D
:1019D000CF93DF937C016B018A015901DC011496DE
:1019E000CD91DC911597C21BD30B4C175D0708F402
:1019F000EA01F701248535852A0D3B1DC901B60191
:101A0000AE010E945121C017D10780F4F801EC1BF0
:101A1000FD0B96012C0F3D1FD7011C968C911C9736
:101A20001D969C91B901AF010E9451219501200F93
:101A3000311FF701848195812817390710F0281B81
:101A4000390BC901DF91CF911F910F91FF90EF905A
:101A5000DF90CF90BF90AF900895CF92DF92EF923A
:101A6000FF920F931F93DF93CF9300D0CDB7DEB7D4
:101A70007C016B015A834983DC011296ED91FC9144
:101A800013971E968C9180FF11C02017310758F0D4
:101A9000C701BE016F5F7F4F42E050E09F010E948F
:101AA000E00CFC010BC01A82198208C089819A815E
:101AB0008217930708F49C013A83298349815A814C
:101AC0004115510541F0C701B6019F010E94E00C8C
:101AD000F7019383828389819A810F900F90CF9130
:101AE000DF911F910F91FF90EF90DF90CF900895BD
:101AF000AF92BF92CF92DF92EF92FF920F931F931C
:101B0000CF93DF93EC015B018A0169018E8580FD33
:101B100002C07A0105C082E0E82EF12CE40EF51E29
:101B2000CE010E94320B9C01CE01B501A8018701B4
:101B30000E942D0D5C01009731F14C815D812A815D
:101B40003B8188819981240F351F281B390B24176D
:101B5000350710F0241B350B8E819F81281739071C
:101B600090F088859985892B71F08885998560E04A
:101B700020E030E040E050E000E0EE24FF240E944E
:101B8000DA1219861886C501DF91CF911F910F9146
:101B9000FF90EF90DF90CF90BF90AF9008956F923D
:101BA0007F928F929F92AF92BF92CF92DF92EF92ED
:101BB000FF920F931F93CF93DF93EC014B013A01F8
:101BC00069018E8580FD03C0AA24BB2403C092E076
:101BD000A92EB12C2C813D81C114D10491F10FB6F5
:101BE000F8940F920A811B8188819981020F131F3B
:101BF000081B190B0217130710F0021B130BA0167A
:101C0000B10648F080E090E060E00E9488140E94F5
:101C1000BC12998788870F900FBEA016B10620F1DD
:101C200080E040E050E060E070E000E010E020E0A4
:101C300030E0EE24FF240E94D416198618862C81E9
:101C40003D810A811B8188819981020F131F081B26
:101C5000190B0217130710F0021B130BA016B10685
:101C600018F0CC24DD241FC0CE01B401A3019801DB
:101C70000E941C0C6C010097B1F00E94A40F8A8591
:101C80009B85892B71F08A859B8560E020E030E0A0
:101C900040E050E000E0EE24FF240E94D2141B86B6
:101CA0001A860E94A015C601DF91CF911F910F9156
:101CB000FF90EF90DF90CF90BF90AF909F908F906C
:101CC0007F906F9008952F923F924F925F926F9204
:101CD0007F928F929F92AF92BF92CF92DF92EF92BC
:101CE000FF920F931F93DF93CF93CDB7DEB7279764
:101CF0000FB6F894DEBF0FBECDBF5C017F836E834D
:101D00002A013D832C83FC01248135812150304000
:101D1000868580FF0BC042E0642E712C640C751C1C
:101D20002615370548F41D821C8206C02417350786
:101D300010F4390101C03A018C819D81892B09F48D
:101D40003DC08E010F5F1F4FC8010E94681218012D
:101D50000FB6F8940F92C5010E94320B4C01861504
:101D6000970538F580E090E060E00E9488140E94BA
:101D7000BC12F501938782870F900FBECC80DD8067
:101D800080E040E050E060E070E000E010E020E043
:101D900030E0EE24FF240E94D416F501138612864B
:101DA000C101BE016C5F7F4F0E948312882381F2C4
:101DB00002C00F900FBE9401892821F4C5010E9432
:101DC000320B9C01C5016E817F81A20183010E94BB
:101DD0002D0D6C01009771F1F5014481558122812F
:101DE000338180819181240F351F281B390B2417E3
:101DF000350710F0241B350BF501868197812817D4
:101E00003907C0F00E94A40FF50180859185892BC8
:101E100079F08085918560E020E030E040E050E09E
:101E200000E0EE24FF240E94D214F50111861086F2
:101E30000E94A015C60127960FB6F894DEBF0FBE0C
:101E4000CDBFCF91DF911F910F91FF90EF90DF9069
:101E5000CF90BF90AF909F908F907F906F905F904A
:101E60004F903F902F900895FC010FB6F8940F9279
:101E700080859185892BC9F482859385892BA9F466
:101E800024853585448155816681778196858FE0EB
:101E9000DF011D928A95E9F73587248755834483AE
:101EA00077836683968781E001C080E00F900FBE44
:101EB0000895FC01868581FD04C0CF010E9469045C
:101EC00008958FE0DF011D928A95E9F70895CF927A
:101ED000DF92FF920F931F93CF93DF936C018B01DF
:101EE000F42E6115710511F401E010E0C601409671
:101EF000C816D90618F0A0E0B0E01DC00E94790411
:101F0000FC01DC010097B9F08FE0EF0119928A958E
:101F1000E9F71F96B587A4871F970894C11CD11CA9
:101F2000D582C48217830683168681E0F81619F4D9
:101F30001E96FC921E97CD01DF91CF911F910F91BC
:101F4000FF90DF90CF900895809180078F5F8093FE
:101F5000800708950FB6F8940F922091830730916F
:101F600084070F900FBEC901089520918307309117
:101F70008407C901089580918A070895009721F484
:101F800080917E0790917F079C01275E3F4FC9019A
:101F90000895EF92FF920F931F93CF93DF93809159
:101FA0008007882309F0FBC0009183071091840704
:101FB0000F5F1F4F109384070093830701151105CE
:101FC00061F52091FC073091FD078091FE0790910B
:101FD000FF079093FD078093FC073093FF07209342
:101FE000FE07809187078F5F80938707E091FC074A
:101FF000F091FD078081882319F48FEF9FEF09C0CE
:10200000E091FC07F091FD070580F681E02D8081CD
:1020100091819093860780938507809185079091A1
:1020200086070817190708F4A2C0FF2439E0E32E39
:10203000E091FC07F091FD078081882319F48FEF70
:102040009FEF0EC0E091FC07F091FD070580F6813F
:10205000E02DC681D7818A819B810817190728F452
:10206000909386078093850783C0AA85BB854C81A2
:102070005D818E819F81FA01958384832E813F81CA
:10208000F90153834283BE016E5F7F4F11968D919C
:102090009C9112978617970721F412963C932E93E2
:1020A00011971B861A868C9181508C93AC89BD89BF
:1020B0001097F9F02E853F8588899989F9019583D4
:1020C000848348895989FA01338322839E01245FDE
:1020D0003F4F11968D919C9112978217930721F48F
:1020E00012965C934E9311971D8A1C8A8C91815095
:1020F0008C939E8980918107891710F490938107B2
:10210000892F90E0FC0123E0EE0FFF1F2A95E1F7F5
:10211000E80FF91FE057F84FA181B281BD83AC836E
:1021200014968D919C9115979F838E831496ED91B3
:10213000FC9115977383628315967C936E93149725
:10214000EE89EE9DF0011124E057F84FFB87EA87F6
:1021500080818F5F8083E0917E07F0917F079E8969
:102160008689981708F464CFFF24F39461CFFF2485
:10217000E0917E07F0917F07E68989E0E89FF00112
:102180001124E057F84F8081823010F0FF24F3943F
:1021900080918207882369F0FF24F3940AC080911C
:1021A0008807909189070196909389078093880703
:1021B000FF248F2DDF91CF911F910F91FF90EF9012
:1021C000089580918007882321F081E08093820721
:1021D0000895109282072091810799E001C0215053
:1021E000299FD0011124A057B84F8C918823B9F3AF
:1021F0001196ED91FC9112970280F381E02D1296D9
:10220000FC93EE931197CD010396E817F90731F48B
:102210008281938112969C938E9311971196ED91E2
:10222000FC9112978681978190937F0780937E0718
:10223000209381070895CF93DF93DC011596ED91EC
:10224000FC911697C681D781AC89BD894E855F8583
:1022500088899989FA019583848328893989F901C4
:1022600053834283AE01445F5F4F11968D919C91E1
:1022700012978417950721F412963C932E93119789
:102280001D8A1C8A8C9181508C93809180078823B1
:1022900009F055C0AA85BB854C815D818E819F81E7
:1022A000FA01958384832E813F81F9015383428310
:1022B000AE014E5F5F4F11968D919C9112978417DE
:1022C000950721F412963C932E9311971B861A863C
:1022D0008C9181508C939E8980918107891710F48D
:1022E00090938107892F90E0FC0163E0EE0FFF1FC0
:1022F0006A95E1F7E80FF91FE057F84FA181B28125
:10230000BD83AC8314968D919C9115979F838E838A
:102310001496ED91FC9115975383428315965C9327
:102320004E931497EE8989E0E89FF0011124E0575D
:10233000F84FFB87EA8780818F5F80831FC0A09161
:102340000108B0910208BF87AE8714968D919C91C9
:102350001597998B888B1496ED91FC911597538363
:10236000428315965C934E93149780E098E09D8B82
:102370008C8B809100088F5F80930008E0917E072E
:10238000F0917F079E898689891710F080E003C04D
:1023900081E080938207DF91CF910895CF93DF93FF
:1023A000DC01706811967C936E9316962D913C918A
:1023B00017971896CD91DC91199712966D917C9193
:1023C000139714968D919C911597FB0195838483A7
:1023D00014964D915C911597FA01738362838981FC
:1023E0009A818A179B0711F45A83498319961C9284
:1023F0001E921897888181508883E901AA85BB8540
:102400004C815D818E819F81FA01958384830E804A
:10241000DF81C02D5B834A83A9014E5F5F4F119618
:102420008D919C9112978417950721F41296DC9355
:10243000CE931197E9011B861A868C9181508C935B
:102440009E8980918107891710F490938107892FC5
:1024500090E0FC0173E0EE0FFF1F7A95E1F7E80FC3
:10246000F91FE057F84FA181B281F901B583A48328
:1024700014968D919C911597978386831496ED9170
:10248000FC9115975383428315965C934E93149752
:10249000D9015696EC91569789E0E89FF0011124F6
:1024A000E057F84F1B96FC93EE931A9780818F5F4D
:1024B0008083E0917E07F0917F0756969C918689F4
:1024C000891718F481E080938207DF91CF910895F6
:1024D000FC010FB6F8940F9280918707808380915A
:1024E000830790918407928381830F900FBE089594
:1024F000FC018091870780838091830790918407F6
:10250000928381830895DC01FB010FB6F8940F924A
:10251000409183075091840711962D913C91129719
:10252000909187078C91981719F042175307D0F4B0
:10253000CA01821B930B9C01808191812817390766
:1025400088F4821B930B91838083809187078C93FF
:10255000809183079091840712969C938E93119794
:1025600080E003C01182108281E00F900FBE0895B9
:1025700081E080938207089520917E0730917F0744
:10258000C9010895E0917E07F0917F0784859585C4
:10259000A0917E07B0917F07E0917E07F0917F07C1
:1025A00046892AE030E0241B31091D963C932E9386
:1025B0001C970895CF92DF92EF92FF920F93CF93E3
:1025C000DF93EC01E114F10489F0E62FF0E0EE0F67
:1025D000FF1FEE0FFF1FE80FF91F87A990ADA1ADF8
:1025E000B2ADF70180839183A283B383A62FB0E0BD
:1025F000FE01EA0FFB1F63AD82E083AF0230D1F032
:10260000033018F40130C9F505C0033051F104302E
:10261000A1F523C0FD01EE0FFF1FEE0FFF1FEC0F12
:10262000FD1F87A990ADA1ADB2AD822B932BA42B3A
:10263000B52B0EC0FD01EE0FFF1FEE0FFF1FEC0FBD
:10264000FD1F87A990ADA1ADB2AD0196A11DB11D31
:1026500087AB90AFA1AFB2AF10C0623011F480E091
:102660009DC0AA0FBB1FAA0FBB1FAC0FBD1FD796E3
:102670002D933D934D935C93DA97613009F08DC0B3
:1026800080918007882309F055C0AA85BB854C81BD
:102690005D818E819F81FA01958384832E813F81A4
:1026A000F90153834283AE014E5F5F4F11968D91C6
:1026B0009C9112978417950721F412963C932E93C0
:1026C00011971B861A868C9181508C939E898091DC
:1026D0008107891710F490938107892F90E0FC01FE
:1026E000A3E0EE0FFF1FAA95E1F7E80FF91FE057EF
:1026F000F84FA181B281BD83AC8314968D919C91DA
:1027000015979F838E831496ED91FC9115975383B3
:10271000428315965C934E931497EE8989E0E89F67
:10272000F0011124E057F84FFB87EA8780818F5F23
:10273000808321C0A0910108B0910208BF87AE87B5
:1027400014968D919C911597998B888BCE010C9640
:102750001496ED91FC9115979383828315969C9323
:102760008E93149780E098E09D8B8C8B809100086D
:102770008F5F80930008E0917E07F0917F079E892C
:102780008689891750F4C114D10419F081E0F6014B
:10279000808381E08093820701C081E0DF91CF9147
:1027A0000F91FF90EF90DF90CF900895CF93DF933C
:1027B000EC01E62FBA01F0E0DC01AE0FBF1FDB96A3
:1027C0002C91DB9782E0DB968C93EE0FFF1FEE0FD0
:1027D000FF1FEC0FFD1F87A990ADA1ADB2AD019613
:1027E000A11DB11D87AB90AFA1AFB2AF213009F0F1
:1027F0008CC080918007882309F055C0AA85BB85CD
:102800004C815D818E819F81FA01958384832E8125
:102810003F81F90153834283AE014E5F5F4F1196B2
:102820008D919C9112978417950721F412963C93F1
:102830002E9311971B861A868C9181508C939E89BA
:1028400080918107891710F490938107892F90E078
:10285000FC01A3E0EE0FFF1FAA95E1F7E80FF91FB7
:10286000E057F84FA181B281BD83AC8314968D915E
:102870009C9115979F838E831496ED91FC911597EB
:102880005383428315965C934E931497EE8989E0A7
:10289000E89FF0011124E057F84FFB87EA87808119
:1028A0008F5F808321C0A0910108B0910208BF878B
:1028B000AE8714968D919C911597998B888BCE013C
:1028C0000C961496ED91FC9115979383828315963F
:1028D0009C938E93149780E098E09D8B8C8B8091D5
:1028E00000088F5F80930008E0917E07F0917F07DA
:1028F0009E898689891748F46115710519F081E070
:10290000FB01808381E080938207DF91CF9108955E
:10291000009721F480917E0790917F070FB6F8947D
:102920000F92FC01E60FF11D83AD823011F080E0C3
:1029300002C013AE81E00F900FBE0895EF92FF9298
:102940000F931F9379018A01009721F480917E07EC
:1029500090917F070FB6F8940F92E62FF0E0EE0FFC
:10296000FF1FEE0FFF1FE80FF91F27A930AD41AD84
:1029700052AD87A990ADA1ADB2ADE094F0940095B1
:1029800010958E219F21A023B12387AB90AFA1AFDB
:10299000B2AF0F900FBEB901CA011F910F91FF9006
:1029A000EF900895EF92FF920F93CF93DF93EC0196
:1029B0000FB6F8940F92E114F10489F0E62FF0E0DD
:1029C000EE0FFF1FEE0FFF1FEC0FFD1F87A990AD4D
:1029D000A1ADB2ADF70180839183A283B383A62F0B
:1029E000B0E0FE01EA0FFB1F63AD82E083AF02306F
:1029F000D1F0033018F40130C9F505C0033051F1AE
:102A00000430A1F523C0FD01EE0FFF1FEE0FFF1FE5
:102A1000EC0FFD1F87A990ADA1ADB2AD822B932B1A
:102A2000A42BB52B0EC0FD01EE0FFF1FEE0FFF1FF5
:102A3000EC0FFD1F87A990ADA1ADB2AD0196A11D10
:102A4000B11D87AB90AFA1AFB2AF10C0623011F42F
:102A500080E06EC0AA0FBB1FAA0FBB1FAC0FBD1F2B
:102A6000D7962D933D934D935C93DA97613009F09F
:102A70005EC0AA85BB854C815D818E819F81FA01F4
:102A8000958384832E813F81F90153834283AE0174
:102A90004E5F5F4F11968D919C9112978417950709
:102AA00021F412963C932E9311971B861A868C91D3
:102AB00081508C939E8980918107891710F490939F
:102AC0008107892F90E0FC0133E0EE0FFF1F3A955C
:102AD000E1F7E80FF91FE057F84FA181B281BD83FC
:102AE000AC8314968D919C9115979F838E83149639
:102AF000ED91FC9115975383428315965C934E9309
:102B00001497EE8989E0E89FF0011124E057F84F0F
:102B1000FB87EA8780818F5F8083E0917E07F09159
:102B20007F079E898689891710F40E941B0681E021
:102B30000F900FBEDF91CF910F91FF90EF9008950E
:102B40001F93CF93DF930FB6F8940F928091800775
:102B500081508093800780918007882309F0C7C047
:102B600080918A07882309F4C2C0C0E0D0E079E0F0
:102B700061E084C0E0910508F0910608C681D78124
:102B8000AC89BD892E853F8588899989F90195830E
:102B9000848348895989FA01338322839E01245F03
:102BA0003F4F11968D919C9112978217930721F4B4
:102BB00012965C934E9311971D8A1C8A8C918150BA
:102BC0008C93AA85BB854C815D818E819F81FA01A2
:102BD000958384832E813F81F90153834283AE0123
:102BE0004E5F5F4F11968D919C91129784179507B8
:102BF00021F412963C932E9311971B861A868C9182
:102C000081508C939E8980918107891710F490934D
:102C10008107892F90E0FC0123E0EE0FFF1F2A952A
:102C2000E1F7E80FF91FE057F84FA181B281BD83AA
:102C3000AC8314968D919C9115979F838E831496E7
:102C4000ED91FC9115975383428315965C934E93B7
:102C50001497EE89E79FF0011124E057F84FFB87A6
:102C6000EA8780818F5F8083E0917E07F0917F0704
:102C70009E898689981710F06093820780910008DA
:102C8000882309F077CFCD2BB9F0E091FC07F091C4
:102C9000FD078081882319F48FEF9FEF09C0E09131
:102CA000FC07F091FD070580F681E02D8081918180
:102CB0009093860780938507C0918807D0918907F4
:102CC000209769F011E00E94C90F882311F010933A
:102CD00082072197C1F71092890710928807809187
:102CE0008207882321F00E941B0681E001C080E05A
:102CF0000F900FBEDF91CF911F9108952091800713
:102D00002F5F209380072091880730918907280F33
:102D1000391F30938907209388070E94A0150895D2
:102D20000F931F93CF93DF93EC01009183071091D2
:102D3000840780917E0790917F0702960E9412057A
:102D4000C00FD11FE0917E07F0917F07D383C2832C
:102D5000C017D10768F48091FE079091FF0760913A
:102D60007E0770917F076E5F7F4F0E94E00417C05F
:102D70008091FC079091FD0760917E0770917F071D
:102D80006E5F7F4F0E94E0048091850790918607D7
:102D9000C817D90720F4D0938607C0938507DF9121
:102DA000CF911F910F9108958F929F92AF92BF92F2
:102DB000CF92DF92EF92FF920F931F93CF93DF9307
:102DC00048015901E7010FB6F8940F92E0917E0790
:102DD000F0917F07E82EFF24EE0DFF1D83AD8230BA
:102DE00061F1E0917E07F0917F07C701880F991F7D
:102DF000880F991FE80FF91F87A990ADA1ADB2AD5B
:102E0000409550956095709584239523A623B7230C
:102E100087AB90AFA1AFB2AFE0917E07F0917F0793
:102E2000EE0DFF1D81E083AFC114D10431F0C60166
:102E300061E00E9490160E941B060F900FBE0FB615
:102E4000F8940F92209799F0E0917E07F0917F0718
:102E5000C701880F991F880F991FE80FF91F87A9CD
:102E600090ADA1ADB2AD88839983AA83BB83E09175
:102E70007E07F0917F07EE0DFF1D83AD823011F0CC
:102E800080E01CC0E0917E07F0917F07C701880FAA
:102E9000991F880F991FE80FF91F87A990ADA1AD61
:102EA000B2AD80949094A094B09488219921AA21E5
:102EB000BB2187AB90AFA1AFB2AF81E0E0917E07BD
:102EC000F0917F07EE0DFF1D13AE0F900FBEDF9147
:102ED000CF911F910F91FF90EF90DF90CF90BF9017
:102EE000AF909F908F9008951F93CF93DF93162FED
:102EF0000FB6F8940F92E0917E07F0917F07C82FEC
:102F0000D0E0CE01880F991F880F991FE80FF91F95
:102F100087A990ADA1ADB2AD0097A105B10589F427
:102F2000E0917E07F0917F07EC0FFD1F81E083AFFA
:102F30004115510531F0CA0161E00E9490160E94CE
:102F40001B060F900FBE0FB6F8940F92E0917E070C
:102F5000F0917F07CE01880F991F880F991FE80F06
:102F6000F91F27A930AD41AD52AD211531054105FD
:102F70005105F9F0112359F0E0917E07F0917F0798
:102F8000E80FF91F17AA10AE11AE12AE12C0E091F1
:102F90007E07F0917F072150304040405040E80FBD
:102FA000F91F27AB30AF41AF52AF2F5F3F4F4F4FAD
:102FB0005F4FE0917E07F0917F07EC0FFD1F13AE8E
:102FC0000F900FBEB901CA01DF91CF911F910895F3
:102FD0000F931F938C01CA01E0917E07F0917F0748
:102FE000706875876487F801A181B281E0917E07DE
:102FF000F0917F07B787A687E0917E07F0917F0762
:1030000014962D913C911597318B208B20917E0742
:1030100030917F071496ED91FC911597245F3F4FF7
:103020003383228320917E0730917F07245F3F4FB7
:1030300015963C932E931497E0917E07F0917F07AD
:10304000158B048BF80120812F5F208361E00E94A3
:1030500090161F910F9108959C01009769F080913F
:1030600080078F5F80938007C90160E00E949016FF
:103070000E94A015882311F40E941B0608951F9337
:10308000FC01809180078F5F809380078091830788
:103090009091840720813181620F731F82179307FB
:1030A00028F46217730728F010E008C0621773074E
:1030B00020F010E08617970708F411E07183608311
:1030C000112339F09B01281B390BC90160E00E94D4
:1030D00090160E94A015882311F40E941B06812FD0
:1030E0001F9108950F931F938B0160917E0770913C
:1030F0007F07645F7F4F0E94E004C80161E00E9487
:1031000090161F910F910895F89410928B070E94CA
:10311000BA0508950F931F9321C00FB6F8940F922C
:10312000E0910E08F0910F0806811781C801029600
:103130000E94120580918A07815080938A078091AE
:103140008E07815080938E070F900FBEF8018789FC
:10315000908D0E946904C8010E94690480918E07C5
:103160008823D9F6809190078230C0F30E941B0615
:10317000F5CF0F931F93CF93DF930FB6F8940F9271
:10318000009711F0EC0104C0C0917E07D0917F0739
:103190008E010E5F1F4FC8010E9412058C899D8908
:1031A000892B21F0CE010C960E94120580918F0789
:1031B0008F5F80938F0780917E0790917F07C8175C
:1031C000D90759F489E098E0B8010E94C1048091C0
:1031D0008E078F5F80938E071CC080918A07815075
:1031E00080938A07E091FC07F091FD078081882396
:1031F00019F48FEF9FEF09C0E091FC07F091FD07F4
:103200000580F681E02D80819181909386078093DF
:1032100085070F900FBE80917E0790917F07C8179A
:10322000D90739F08F89988D0E946904CE010E94D8
:10323000690480918B07882349F080917E079091E3
:103240007F07C817D90711F40E941B06DF91CF91A1
:103250001F910F9108954F925F926F927F928F927C
:103260009F92AF92BF92CF92DF92EF92FF920F9315
:103270001F93CF93DF932C014B015A013901CA01EF
:103280000E947904EC01009799F08CE390E00E9491
:1032900079046C01009749F0DC015896DC93CE93D9
:1032A00057978114910431F417C0CE010E9469042C
:1032B0008FEFF2C0F401DC0190E0808159968C938D
:1032C00059978081882329F09F5F319611969E310E
:1032D000A1F7F60116AA03C0DC0159961C920A3028
:1032E00008F009E0F601068B52E0852E912C8C0C3B
:1032F0009D1CC4010E94BD04C6010C960E94BD0421
:10330000D6011996DC92CE9218978AE090E0801B45
:1033100091091D969C938E931C975396DC92CE92A6
:103320005297F60117AA10AE11AE12AE13AE089462
:10333000A108B108CE018A0D9B1DB201A3010E9414
:103340003D05D6018D939C93E114F10419F0F7012A
:10335000D182C0820FB6F8940F9280918A078F5F56
:1033600080938A0780917E0790917F07892B79F55A
:10337000D0927F07C0927E0780918A078130C9F57D
:10338000C0E9D7E0CE010E94AD042996F7E0CA3E1D
:10339000DF07C1F74AEEE42E47E0F42EC7010E9492
:1033A000AD0403EF17E0C8010E94AD0480E098E08F
:1033B0000E94AD0489E098E00E94AD04F092FD0700
:1033C000E092FC071093FF070093FE0712C0809164
:1033D0008B07882371F4E0917E07F0917F0796892F
:1033E000D60156968C91891720F0D0927F07C09213
:1033F0007E0780918F078F5F80938F07F6019689F4
:1034000080918107891710F490938107D601569611
:103410008C9190E0FC0133E0EE0FFF1F3A95E1F74D
:10342000E80FF91FE057F84FA181B281F601B5838B
:10343000A48314968D919C911597978386831496F7
:10344000ED91FC9115979382828215969C928E92B3
:103450001497D6015696EC91569789E0E89FF001B3
:103460001124E057F84F1B96FC93EE931A97808136
:103470008F5F80830F900FBE80918B07882359F058
:10348000E0917E07F0917F079689F601868998176B
:1034900010F40E941B0681E0DF91CF911F910F91E4
:1034A000FF90EF90DF90CF90BF90AF909F908F9064
:1034B0007F906F905F904F900895EF92FF920F93DF
:1034C0008AE898E160E670E045E550E020E030E011
:1034D00000E0ECE8EE2EE7E0FE2E0E942B19813092
:1034E00081F4F8948FEF9FEF909386078093850780
:1034F00081E080938B0710928407109283070E94CB
:1035000085058091E2000F91FF90EF900895929AC7
:1035100080E49CE90197F1F79298089584B38F7045
:1035200084BB9098919A929A80E49CE90197F1F774
:10353000929884B3806F84BB08951F93182F0E94C4
:103540008E1A909A919815BB929A80E49CE9019703
:10355000F1F792981F9108951F93182F0E948E1AC9
:103560009098919815BB929A80E49CE90197F1F7A5
:1035700092981F9108958130910541F46031710551
:1035800070F4862F80580E94AC1A0895029739F47F
:103590006031710520F4862F80540E94AC1A089582
:1035A0000F931F93CF93DF938C01C0E0D0E01EC038
:1035B0002196C131D10539F482E090E060E070E0FD
:1035C0000E94BB1A0EC0C132D1055CF081E00E949E
:1035D000AC1A81E090E060E070E00E94BB1AC0E0AD
:1035E000D0E0F80181918F010E949D1AF80180813D
:1035F0008823F1F6DF91CF911F910F91089581E01B
:103600000E94AC1A089580E49CE90197F1F784B315
:10361000806F84BB8A9A889A899A82B3887F82BB9A
:1036200080E30E94AC1A80E29EE40197F1F780E308
:103630000E94AC1A80E991E00197F1F780E30E94C3
:10364000AC1A88E30E94AC1A88E00E94AC1A0E946F
:10365000FF1A86E00E94AC1A8FE00E94AC1A08950F
:103660008CE10E94AC1A08954F925F926F927F9204
:103670008F929F92AF92BF92CF92DF92EF92FF9282
:103680001F93DF93CF93CDB7DEB72B970FB6F89488
:10369000DEBF0FBECDBF6B017C01611571058105D9
:1036A000910521F480E389831A8244C0662477243B
:1036B0002AE030E040E050E00E94F820C901DA0141
:1036C000BC01CD010894611C711C61157105810557
:1036D000910571F7AA24BB244E010894811C911C0A
:1036E0002401460C571C1FC0C701B6012AE030E078
:1036F00040E050E00E94F820162FC701B6012AE0F2
:1037000030E040E050E00E94F820C901DA016C018D
:103710007D01F501E095F095E40DF51D105D108338
:103720000894A11CB11CA614B704F0F2860C971CD7
:10373000F4011082CE0101960E94D01A2B960FB68A
:10374000F894DEBF0FBECDBFCF91DF911F91FF90E8
:10375000EF90DF90CF90BF90AF909F908F907F9031
:103760006F905F904F9008958AB3807F8ABB8AB331
:10377000806F8ABB8FEF8BBB0895FF920F931F93CF
:10378000CF93DF9381E090E0BC010090EF0002C096
:10379000660F771F0A94E2F7AC010090F10002C0B7
:1037A000440F551F0A94E2F79C010090ED0002C0FF
:1037B000220F331F0A94E2F70090EB0002C0880F3B
:1037C000991F0A94E2F7F22EF82ACBEED0E0E0E05F
:1037D000F0E0462B01E010E08BB3842B8F298BBBEC
:1037E0002BB3C801088002C0880F991F0A94E2F722
:1037F000809582238BBBA3EEB0E020E030E089B35C
:103800005C9190E0052E02C0959587950A94E2F7A9
:1038100080FD5FC0B80102C0660F771F5A95E2F7BE
:1038200089B390E086239723892BD1F3E130F1050A
:10383000F9F0E230F1051CF4309749F04AC0E2306B
:10384000F10539F1E330F10509F043C031C021152C
:10385000310511F487E34BC02130310511F484E3C5
:1038600046C02230310511F081E241C081E33FC002
:103870002115310511F488E33AC02130310511F4E6
:1038800085E335C02230310511F080E330C082E39A
:103890002EC02115310511F489E329C021303105ED
:1038A00011F486E324C02230310599F483E31FC06C
:1038B0002115310511F48FE21AC02130310511F4C0
:1038C0008AE215C02230310511F08BE210C08DE282
:1038D0000EC02F5F3F4F12962430310509F08FCF75
:1038E00031962296E430F10509F076CF8EE4DF912F
:1038F000CF911F910F91FF900895AF92BF92CF92F9
:10390000DF92EF92FF920F931F93CF93DF936B01A0
:1039100021E030E040E050E0C0E0D0E07C0100E099
:1039200010E009C0CA01B901A80197010E94C52091
:103930009B01AC012196CC15DD05A0F359016A016C
:10394000A60160E070E080E090E0DF91CF911F91F0
:103950000F91FF90EF90DF90CF90BF90AF900895C0
:10396000282F30E020533040C90108950F931F9352
:10397000DF93CF930F92CDB7DEB719828E010F5F21
:103980001F4F81E061E0A8010E94710280911F0831
:10399000909120086AE070E00E948608813019F05A
:1039A0008981882359F4809117089091180860E064
:1039B00070E040E050E020E00E94D00982E390E017
:1039C0000E942C18DECFEF92FF921F93DF93CF93CC
:1039D0000F92CDB7DEB781E0898310E07E010894B5
:1039E000E11CF11C80911708909118086AE070E0C2
:1039F0000E948608813049F5112339F40E94FF1A8C
:103A000085E690E00E94D01A11E080E061E0A70115
:103A10000E9471028981882369F48091190890912C
:103A20001A0860E070E040E050E020E00E94D00919
:103A300010E00BC080911F089091200860E070E0BA
:103A400040E050E020E00E94D00984E190E00E9434
:103A50002C18C8CF80912308909124086AE070E068
:103A60000E948608813039F50E94FF1A81E790E0B4
:103A70000E94D01A60911208709113088091140866
:103A8000909115080E94341B82E090E060E070E0A5
:103A90000E94BB1A80911B0890911C080E94D01AAA
:103AA00080911F089091200860E070E040E050E0B5
:103AB00020E00E94D00984E690E00E942C18CACF32
:103AC0001F9311E080911D0890911E086AE070E03C
:103AD0000E948608982F813029F080911608813045
:103AE00009F054C010931608913051F50E94FF1A46
:103AF00081E090E060E070E00E94BB1A8AE790E00D
:103B00000E94D01A81E090E067E070E00E94BB1A4A
:103B100081E890E00E94D01A82E090E060E070E0DE
:103B20000E94BB1A8BE890E00E94D01A82E090E0DD
:103B30006AE070E00E94BB1A86E990E00E94D01A09
:103B40000E94BD1B813329F480912508909126089D
:103B500014C0823329F480912308909124080DC069
:103B6000833329F4809121089091220806C0843380
:103B700069F480911F089091200860E070E040E0B7
:103B800050E020E00E94D0091092160882E390E0F5
:103B90000E942C1897CF2F923F924F925F926F9274
:103BA0007F928F929F92AF92BF92CF92DF92EF92CD
:103BB000FF920F931F93DF93CF93CDB7DEB7A697F6
:103BC0000FB6F894DEBF0FBECDBFFE01319688E17F
:103BD000DF011D928A95E9F7FE013996FEA3EDA358
:103BE0008091190890911A086AE070E00E94860896
:103BF000813009F00FC10E94FF1A8DE990E00E9408
:103C0000D01A10E02BC01C3090F09E012F5F3F4F68
:103C10003C8F2B8F1D8E1E8E1F8E18A219A21AA2EA
:103C20001BA21CA263E070E07A8F698F1CC08E34E7
:103C3000A9F0682F70E060537040E12FF0E0EE0FC4
:103C4000FF1F81E090E08C0F9D1FE80FF91F71832B
:103C5000608380E090E00E94341B1F5F0E94BD1BC8
:103C60008A3289F6D2CFAB8DBC8D2D903C9000E08E
:103C700010E061E070E080E090E008C02AE030E011
:103C800040E050E00E94C5200F5F1F4FE98DFA8D84
:103C90000E171F0798F35B016C019B01A60160E002
:103CA00070E080E090E05101CC24DD24EE24FF247C
:103CB00000E010E00E944900FD8D2F0FE1E02F177A
:103CC00008F0E0E0AE8D3A0FF1E03A1708F0F0E0CE
:103CD000BE2EB30EE1E0B31608F0E0E0FE2BBF8D80
:103CE0004B0FE1E04B1708F0E0E0CF2EC40E31E0BF
:103CF000C41608F030E0E32BF8A15F0F41E05F1736
:103D000008F040E0DE2ED50E31E0D51608F030E0A8
:103D1000432B39A1630F51E0631708F050E0E42E04
:103D2000E60E31E0E61608F030E0532B6AA1760F7C
:103D300041E0761708F040E0F52EF70E31E0F71677
:103D400008F030E0432B7BA1870F51E0871708F084
:103D500050E0142F180F31E0181708F030E0452F0D
:103D6000432B8CA1890F480F2D8FBE8ECF8ED8A2EA
:103D7000E9A2FAA21BA34CA3AB8DBC8D1296BC8FFB
:103D8000AB8FE98DFA8D3197FA8FE98F6DA17EA106
:103D9000A617B70709F067CF30E01CC09217C9F427
:103DA0005B15B9F46C15A9F47D1599F4AE1589F479
:103DB000BF1579F4011769F4E41759F40E94FF1A4A
:103DC00086EA90E00E94D01A809121089091220802
:103DD00030C03F5F832F90E0FC0165E0EE0FFF1FD6
:103DE0006A95E1F7880F991FE80FF91FED50FF4F13
:103DF0009081518162817381A481B5810681E781BF
:103E0000892F852B862B872B8A2B8B2B802B8E2B18
:103E100029F605C084E690E00E942C18E1CE0E94AD
:103E2000FF1A82EB90E00E94D01A80911F089091B7
:103E3000200860E070E040E050E020E00E94D009FF
:103E4000E9CF2F923F924F925F926F927F928F9223
:103E50009F92AF92BF92CF92DF92EF92FF920F9319
:103E60001F93DF93CF93CDB7DEB763970FB6F89468
:103E7000DEBF0FBECDBFFE0131968AE0DF011D928D
:103E80008A95E9F7BEE4B98BFE013996FB8BEA8B84
:103E900080912108909122086AE070E00E948608D3
:103EA000813009F0CEC0992428C0F3E0F91560F400
:103EB0009E012F5F3F4F3E872D87188A1F8683E024
:103EC00090E09C878B871DC099899E3499F0E92DDD
:103ED000F0E0EE0FFF1FA1E0B0E0AC0FBD1FEA0F56
:103EE000FB1F892F90E0C0979183808393948AE28F
:103EF0000E949D1A0E94BD1B898BB989BA32A9F60E
:103F0000D7CFED85FE85208031808824992461E01B
:103F100070E080E090E009C02AE030E040E050E04E
:103F20000E94C5200894811C911C2B853C8582161B
:103F3000930690F35B016C019B01A60160E070E0C9
:103F400080E090E05101CC24DD24EE24FF2400E049
:103F500010E00E94490059018F8598898A0D9B1DA8
:103F6000988B8F87AD85BE851296BE87AD87EB8512
:103F7000FC853197FC87EB872A893B89A217B30719
:103F800009F0BFCFBC0180E090E00E94341B99246F
:103F900044C0AF85B8898A179B07F1F50E94FF1AC4
:103FA00084EC90E00E94D01A80911D0890911E0828
:103FB00060E070E040E050E020E00E94D009892DF0
:103FC00090E0FC0165E0EE0FFF1F6A95E1F7880FB6
:103FD000991FE80FF91FED50FF4F82859385A48547
:103FE000B5858093120890931308A0931408B0939A
:103FF0001508892D90E09C0145E0220F331F4A955A
:10400000E1F7880F991F280F391F2F5F3E4F30931C
:104010001C0820931B0815C09394892D90E0FC0187
:1040200015E0EE0FFF1F1A95E1F7880F991FE80FB3
:10403000F91FED50FF4F80859185009709F0A9CFBA
:1040400005C084E690E00E942C1822CF0E94FF1A3F
:104050008EEC90E00E94D01A80911F089091200869
:1040600060E070E040E050E020E00E94D009E9CF3D
:10407000EF92FF920F9381E061E00E940D0B90930D
:1040800018088093170881E060E00E940D0B909360
:104090001A088093190881E060E00E940D0B90934C
:1040A00022088093210881E060E00E940D0B90932C
:1040B0001E0880931D0881E060E00E940D0B909324
:1040C00026088093250881E060E00E940D0B909304
:1040D00024088093230881E060E00E940D0B9093F8
:1040E000200880931F0880E061E040E00E944401C6
:1040F00081E061E040E00E9444010E94031B0E94B5
:10410000B41B83EE9CE160E070E045E550E020E008
:1041100030E005E0EE24FF240E942B198BEC9DE19A
:1041200060E070E045E550E020E030E001E00E9412
:104130002B1981E29FE160E070E045E550E020E06E
:1041400030E00E942B1980E69DE160E070E045E5DB
:1041500050E020E030E00E942B198AE29DE160E00F
:1041600070E045E550E020E030E00E942B1986EB3E
:104170009CE160E070E045E550E020E030E005E0E3
:104180000E942B190E945D1AFFCF629FD001739F7E
:10419000F001829FE00DF11D649FE00DF11D929FE3
:1041A000F00D839FF00D749FF00D659FF00D992722
:1041B000729FB00DE11DF91F639FB00DE11DF91F46
:1041C000BD01CF0111240895AA1BBB1B51E107C0FB
:1041D000AA1FBB1FA617B70710F0A61BB70B881F97
:1041E000991F5A95A9F780959095BC01CD01089526
:1041F000A1E21A2EAA1BBB1BFD010DC0AA1FBB1FEB
:10420000EE1FFF1FA217B307E407F50720F0A21B5C
:10421000B30BE40BF50B661F771F881F991F1A94C9
:1042200069F760957095809590959B01AC01BD01F3
:10423000CF0108952F923F924F925F926F927F929B
:104240008F929F92AF92BF92CF92DF92EF92FF92A6
:104250000F931F93CF93DF93CDB7DEB7CA1BDB0B52
:104260000FB6F894DEBF0FBECDBF09942A883988F7
:1042700048885F846E847D848C849B84AA84B984FE
:10428000C884DF80EE80FD800C811B81AA81B9810A
:10429000CE0FD11D0FB6F894DEBF0FBECDBFED011E
:1042A0000895FB01DC0102C001900D924150504085
:0842B000D8F70895F894FFCF40
:1042B80049444C45004E54492042616E6B2E2E2EC7
:1042C8000042616C616E63653A00313A436173681C
:1042D80000323A42616C616E636500333A4E65772D
:1042E800205041535300343A4578697400456E7440
:1042F800657249443A00456E7465722050415353C3
:104308003A004944204973206E6F742056616C69E5
:10431800642E2E0057414954494E472E2E005041D5
:104328005353204973206E6F742056616C69642E54
:104338002E00090000010002000300040005000629
:10434800000700F407000000000000F70686683543
:104358000061686D656420616264656C72617A658C
:104368006B00000000A6080000000000006E054178
:10437800EF070073616C6D61206D6F68616D656436
:1043880000000000000000EF04000000000000BC76
:10439800045C2B00006164656C206B68616C65646B
:1043A800000000000000000000DE07000000000020
:1043B80000D107B004000073616565642061646D15
:1043C800696E00000000000000000000000000000E
:1043D80000000000000000000000000000000000D5
:0E43E8000000000000000000000000000000C7
:00000001FF
